:020000040800F2
:1000000000000220A1310008B5300008B730000818
:10001000B9300008BB300008BD3000080000000007
:10002000000000000000000000000000BF300008D9
:10003000C130000800000000C3300008C5300008CF
:10004000F1310008F1310008F1310008F131000808
:10005000F1310008F1310008F1310008F1310008F8
:10006000CD300008D7300008E1300008F131000839
:10007000F1310008F1310008F1310008F1310008D8
:10008000F1310008F1310008F1310008F1310008C8
:10009000F1310008F1310008F1310008EB300008BF
:1000A000F1310008F1310008F1310008F1310008A8
:1000B000F1310008F131000811310008F131000878
:1000C000F1310008F1310008F1310008F131000888
:1000D000F1310008F1310008F13100082131000848
:1000E00031310008F1310008F1310008F131000828
:1000F000F1310008F1310008F1310008F131000858
:10010000F1310008F1310008F1310008F131000847
:10011000F1310008F1310008F1310008F131000837
:10012000F1310008F1310008F1310008F131000827
:10013000F1310008F1310008F1310008F131000817
:10014000F1310008F1310008F1310008F131000807
:10015000F1310008F1310008F1310008F1310008F7
:10016000F1310008F1310008F1310008F1310008E7
:10017000F1310008F1310008F13100080000000001
:08018000F1310008F131000823
:1001880010B5054C237833B9044B13B10448AFF3C9
:1001980000800123237010BD0C0000200000000027
:1001A8004C32000808B5034B1BB103490348AFF3B1
:1001B800008008BD00000000100000204C3200083C
:1001C80081F0004102E000BF83F0004330B54FEA00
:1001D80041044FEA430594EA050F08BF90EA020F6D
:1001E8001FBF54EA000C55EA020C7FEA645C7FEA00
:1001F800655C00F0E2804FEA5454D4EB5555B8BF23
:100208006D420CDD2C4480EA020281EA030382EA93
:10021800000083EA010180EA020281EA0303362D25
:1002280088BF30BD11F0004F4FEA01314FF4801CF8
:100238004CEA113102D0404261EB410113F0004F0A
:100248004FEA03334CEA133302D0524263EB4303C1
:1002580094EA050F00F0A780A4F10104D5F1200E5F
:100268000DDB02FA0EFC22FA05F2801841F10001BA
:1002780003FA0EF2801843FA05F359410EE0A5F18E
:1002880020050EF1200E012A03FA0EFC28BF4CF0BF
:10029800020C43FA05F3C01851EBE37101F0004575
:1002A80007D54FF0000EDCF1000C7EEB00006EEB82
:1002B8000101B1F5801F1BD3B1F5001F0CD349080C
:1002C8005FEA30004FEA3C0C04F101044FEA445263
:1002D80012F5800F80F09A80BCF1004F08BF5FEAEA
:1002E800500C50F1000041EB045141EA050130BDCA
:1002F8005FEA4C0C404141EB010111F4801FA4F16D
:100308000104E9D191F0000F04BF01460020B1FAC1
:1003180081F308BF2033A3F10B03B3F120020CDAF9
:100328000C3208DD02F1140CC2F10C0201FA0CF0D7
:1003380021FA02F10CE002F11402D8BFC2F1200C3C
:1003480001FA02F120FA0CFCDCBF41EA0C019040F2
:10035800E41AA2BF01EB0451294330BD6FEA04043B
:100368001F3C1CDA0C340EDC04F11404C4F1200226
:1003780020FA04F001FA02F340EA030021FA04F338
:1003880045EA030130BDC4F10C04C4F1200220FA8F
:1003980002F001FA04F340EA0300294630BD21FACD
:1003A80004F0294630BD94F0000F83F4801306BF93
:1003B80081F480110134013D4EE77FEA645C18BF87
:1003C8007FEA655C29D094EA050F08BF90EA020F1E
:1003D80005D054EA000C04BF1946104630BD91EA16
:1003E800030F1EBF0021002030BD5FEA545C05D119
:1003F8004000494128BF41F0004130BD14F5800458
:100408003CBF01F5801130BD01F0004545F0FE41CB
:1004180041F470014FF0000030BD7FEA645C1ABF00
:10042800194610467FEA655C1CBF0B46024650EA37
:10043800013406BF52EA033591EA030F41F4002163
:1004480030BD00BF90F0000F04BF0021704730B5E9
:100458004FF4806404F132044FF000054FF00001BE
:1004680050E700BF90F0000F04BF0021704730B57F
:100478004FF4806404F1320410F0004548BF404254
:100488004FF000013EE700BF42004FEAE2014FEAA9
:1004980031014FEA02701FBF12F07F4393F07F4F84
:1004A80081F06051704732F07F4208BF704793F087
:1004B8007F4F04BF41F40021704730B54FF460749A
:1004C80001F0004521F000411CE700BF50EA01029D
:1004D80008BF704730B54FF000050AE050EA010246
:1004E80008BF704730B511F0004502D5404261EBB6
:1004F80041014FF4806404F132045FEA915C3FF4F7
:10050800D8AE4FF003025FEADC0C18BF03325FEA93
:10051800DC0C18BF033202EBDC02C2F1200300FA44
:1005280003FC20FA02F001FA03FE40EA0E0021FA69
:1005380002F11444BDE600BF4FF0FF3C06E000BFE7
:100548004FF0010C02E000BF4FF0010C4DF804CD54
:100558004FEA410C7FEA6C5C4FEA430C18BF7FEA14
:100568006C5C1BD001B050EA410C0CBF52EA430C42
:1005780091EA030F02BF90EA020F0020704710F1C2
:10058800000F91EA030F58BF994208BF90422CBF51
:10059800D8176FEAE37040F0010070474FEA410C4A
:1005A8007FEA6C5C02D150EA013C07D14FEA430C68
:1005B8007FEA6C5CD6D152EA033CD3D05DF8040BD9
:1005C800704700BF8446104662468C46194663460B
:1005D80000E000BF01B5FFF7B7FF002848BF10F1E2
:1005E800000F01BD4DF808EDFFF7F4FF0CBF012027
:1005F80000205DF808FB00BF4DF808EDFFF7EAFFA3
:1006080034BF012000205DF808FB00BF4DF808ED5D
:10061800FFF7E0FF94BF012000205DF808FB00BF52
:100628004DF808EDFFF7CEFF94BF012000205DF8DC
:1006380008FB00BF4DF808EDFFF7C4FF34BF0120E9
:1006480000205DF808FB00BF53B94AB9002908BF6C
:1006580000281CBF4FF0FF314FF0FF3000F072B997
:10066800ADF1080C6DE904CE00F006F8DDF804E001
:10067800DDE9022304B070472DE9F047089E0446DF
:100688008846002B4BD18A42154667D9B2FA82F2C6
:100698004AB1C2F1200701FA02F320FA07F79540A0
:1006A80047EA030894404FEA154E230CB8FBFEF7BF
:1006B8001FFA85FC0EFB178843EA084307FB0CF179
:1006C800994209D9EB1807F1FF3080F01B81994254
:1006D80040F21881023F2B445B1AA4B2B3FBFEF030
:1006E8000EFB103344EA034400FB0CFCA44509D973
:1006F8002C1900F1FF3380F00781A44540F20481F2
:1007080002382C4440EA0740A4EB0C0400271EB131
:10071800D4400023C6E900433946BDE8F0878B4240
:1007280009D9002E00F0EB800027C6E90001384601
:100738003946BDE8F087B3FA83F7002F47D18B42DB
:1007480002D3824200F2FA80841A61EB030301208B
:100758009846002EE0D0C6E90048DDE702B9FFDE82
:10076800B2FA82F2002A40F08F80491B4FEA154EF8
:100778001FFA85F80127B1FBFEFC230C0EFB1C11A8
:1007880043EA014308FB0CF1994207D9EB180CF135
:10079800FF3002D2994200F2CD808446591AA3B2A2
:1007A800B1FBFEF00EFB101443EA044408FB00F80A
:1007B800A04507D92C1900F1FF3302D2A04500F259
:1007C800B6801846A4EB080440EA0C409FE7C7F13E
:1007D800200CBB4022FA0CFE4EEA030E01FA07F485
:1007E80020FA0CF521FA0CF34FEA1E482543B3FB17
:1007F800F8F92C0C08FB19331FFA8EFA44EA034364
:1008080009FB0AF49C4202FA07F200FA07F10BD935
:100818001EEB030309F1FF3080F087809C4240F211
:100828008480A9F1020973441B1BADB2B3FBF8F035
:1008380008FB103345EA034400FB0AFAA24508D92D
:100848001EEB040400F1FF336BD2A24569D90238CC
:10085800744440EA0940A0FB0289A4EB0A044C4511
:10086800C2464B4654D351D0002E69D0B1EB0A058D
:1008780064EB030404FA0CFCFD40FC404CEA05055B
:10088800C6E90054002747E7C2F1200320FA03F71E
:10089800954001FA02F021FA03F34FEA154E384366
:1008A800010CB3FBFEF71FFA85F80EFB173341EA7C
:1008B800034107FB08F38B4204FA02F407D96918CD
:1008C80007F1FF3C2FD28B422DD9023F2944CB1A86
:1008D80081B2B3FBFEF00EFB103341EA034100FB8B
:1008E80008F38B4207D9691800F1FF3C17D28B42F5
:1008F80015D902382944C91A40EA07473BE7374661
:10090800304609E70746E7E61846FBE64145ABD21D
:10091800B8EB020A69EB0E0201381346A4E76046F9
:10092800E9E7184695E76746D1E781467CE702384C
:100938002C4447E7ACF1020C2B442FE7384608E774
:100948003746E9E6704700BF10B504460E4B1878E5
:100958004FF47A73B3FBF0F30C4A1068B0FBF3F072
:1009680000F0F8FA68B90F2C01D901200AE000223A
:1009780021464FF0FF3000F0ADFA034B5C600020D9
:1009880000E0012010BD00BF00000020080000208A
:1009980008B50B4B1A6842F400721A601A6842F4E0
:1009A80080621A601A6842F480721A60032000F0AC
:1009B8007FFA0020FFF7C8FF02F07EFA002008BD8A
:1009C800003C0240034A1168034B1B780B44136038
:1009D800704700BF2C00002000000020014B186861
:1009E800704700BF2C000020494B5A6822F440325F
:1009F8005A605A6841680A435A600268536823F487
:100A08008073536002685368016943EA01235360A5
:100A18000268536823F04073536002685368816822
:100A28000B4353600268936823F400639360026881
:100A38009368C1680B439360826A364B9A4249D0E7
:100A48000268936823F07063936002689368816A10
:100A58000B4393600268936823F0405393600268E5
:100A68009368C16A0B4393600268936823F002039A
:100A7800936002689368816943EA41039360036A5B
:100A8800002B32D10268536823F400635360026874
:100A9800D36A23F47003D3620168CB6AC269013A4E
:100AA80043EA0253CB620268936823F400739360AD
:100AB80002689368016B43EA412393600268936874
:100AC80023F48063936002689368416943EA812351
:100AD800936070470268936823F0706393600268BC
:100AE800936823F040539360BEE70268536843F469
:100AF800006353600268536823F4604353600168DD
:100B08004B68426A013A43EA42334B60BFE700BF91
:100B1800002301400100000F30B310B50446036CF8
:100B280043B1236C13F0100F0AD00120002384F87E
:100B38003C3010BD436480F83C3002F0D9F9F0E74E
:100B4800236C23F4885323F0020343F00203236445
:100B58002046FFF749FF00206064236C23F003035D
:100B680043F001032364E1E70120704782B00023CA
:100B7800019390F83C30012B63D0012380F83C307E
:100B880003689A6812F0010F13D19A6842F00102C3
:100B98009A60304B1B68304AA2FB03239B0C03EB83
:100BA8004303019302E0019B013B0193019B002B4E
:100BB800F9D10268936813F0010F44D0036C23F451
:100BC800E06323F0010343F480730364536813F470
:100BD800806F05D0036C23F4405343F480530364BF
:100BE800036C13F4805F19D0436C23F0060343644D
:100BF800002380F83C306FF022031360174B5B68CA
:100C080013F01F0F0DD103689A6812F0405F1DD1D1
:100C18009A6842F080429A60002015E000234364FD
:100C2800E6E703680E4A934201D000200CE09A6878
:100C380012F0405F0CD19A6842F080429A6000201E
:100C480002E0022000E0002002B070470020FBE72D
:100C58000020F9E70800002083DE1B430023014041
:100C68000020014003689A6812F4806F03D09B68E3
:100C780013F4807F1CD170B50D460446FFF7AEFE15
:100C8800064623681A6812F0020F1AD1B5F1FF3F21
:100C9800F7D025B1FFF7A2FE801BA842F1D9236C3B
:100CA80043F004032364002384F83C3003202DE040
:100CB800036C43F020030364002380F83C300120D8
:100CC80070476FF012021A60236C43F400732364B8
:100CD80023689A6812F0405F17D1A269BAB9DA6A34
:100CE80012F4700F03D09B6813F4806F11D1236C3A
:100CF80023F480732364236C13F4805F0BD1236C7B
:100D080043F001032364002000E0002070BD0020B0
:100D1800FCE70020FAE70020F8E70368D86C704782
:100D280030B482B00023019390F83C30012B00F0DE
:100D3800B780012380F83C300B68092B3ED9056841
:100D4800EA689BB203EB43031E3B072404FA03F350
:100D580022EA0303EB600568EA688C680B8803EBFA
:100D680043031E3B04FA03F31343EB604B68062B63
:100D78003AD805686A6B03EB8303053B1F2404FA22
:100D880003F322EA03036B6305686A6B4B6803EBA2
:100D98008303053B0C8804FA03F313436B6302686F
:100DA800404B9A4250D002683E4B9A4255D000239D
:100DB80080F83C30184602B030BC704705682A6994
:100DC8009BB203EB4303072404FA03F322EA030369
:100DD8002B6105682A698C680B8803EB430304FAC6
:100DE80003F313432B61C1E70C2B16D805682A6B54
:100DF80003EB8303233B1F2404FA03F322EA0303D0
:100E08002B6305682A6B4B6803EB8303233B0C8831
:100E180004FA03F313432B63C1E70568EA6A03EB9B
:100E28008303413B1F2404FA03F322EA0303EB6222
:100E38000568EA6A4B6803EB8303413B0C8804FAB4
:100E480003F31343EB62AAE70B68122BABD1164AE4
:100E5800536843F480035360A5E70B68103B012BEC
:100E6800A5D8114A536843F4000353600B68102B4C
:100E78009DD10E4B1B6802F1467202F52E3202F22A
:100E88008332A2FB03239B0C03EB83035A000192DA
:100E980002E0019B013B0193019B002BF9D186E7FE
:100EA800022088E7002001400023014008000020BC
:100EB800074AD36823F4E0631B041B0C000200F408
:100EC800E060184340F0BF6040F40030D0607047E5
:100ED80000ED00E030B4174BDB68C3F30223C3F125
:100EE8000704042C28BF04241D1D062D18D9033B14
:100EF8004FF0FF3505FA04F421EA0401994005FA98
:100F080003F322EA0303194300280BDB0901C9B2E2
:100F180000F1604000F5614080F8001330BC704774
:100F28000023E5E700F00F000901C9B2024B19548C
:100F3800F4E700BF00ED00E014ED00E000F01F0250
:100F4800400901239340024A42F82030704700BF0D
:100F580000E100E00138B0F1807F0AD2064B58600A
:100F6800064AF02182F823100020986007221A60B0
:100F780070470120704700BF10E000E000ED00E07E
:100F880090F83530DBB2022B03D080234365012073
:100F98007047052380F835300268136823F0010391
:100FA800136000207047000000230F2B00F2D78049
:100FB800F0B482B039E0072200E00022B2403A43A0
:100FC8000234674E46F82420664A1468EA4302EA67
:100FD80004064F6817F4803F01D045EA0406614CC7
:100FE8002660646802EA04064F6817F4003F01D0DF
:100FF80045EA04065B4C6660A46802EA04064F688A
:1010080017F4801F01D045EA0406564CA660E46830
:1010180022404E6816F4001F01D045EA0402514CE4
:10102800E26001330F2B00F2978001229A400C688E
:1010380004EA0205AA42F4D14C68022C01D0122C11
:1010480010D1DE08083650F826C003F00704A700C0
:101058000F24BC402CEA040C0C69BC4044EA0C0484
:1010680040F8264004685F000326BE40F64306EABF
:10107800040C4C6804F00304BC4044EA0C0404600B
:101088004C6804F1FF3CBCF1010F03D9112C01D0CD
:10109800122C10D1846806EA040CCC68BC4044EADF
:1010A8000C048460446824EA02024C68C4F3001407
:1010B8009C4014434460C26816408A68BA40324370
:1010C800C2604A6812F0805FABD000220192264AC3
:1010D800546C44F480445464526C02F4804201928B
:1010E800019A9C08A61C1E4A52F8267003F00302B7
:1010F80096000F22B24027EA02071C4A90423FF4AA
:101108005CAF02F5806290421AD002F5806290428C
:1011180018D002F58062904216D002F580629042A3
:1011280014D002F58062904212D002F5806290429B
:1011380010D002F5806290423FF43DAF08223DE7AF
:1011480001223BE7022239E7032237E7042235E789
:10115800052233E7062231E702B0F0BC704770473A
:1011680000380140003C01400038024000000240C5
:101178000369194201D1002070470120704712B954
:1011880009048161704781617047000008B5054B0B
:101198005B69034200D108BD024B586101F038FB7E
:1011A800F9E700BF003C0140002800F0BB8170B5A2
:1011B80082B00446036813F0010F3BD0A74B9B682D
:1011C80003F00C03042B2CD0A44B9B6803F00C03F6
:1011D800082B21D06368B3F5803F4FD0B3F5A02F1B
:1011E80052D09E4B1A6822F480321A601A6822F490
:1011F80080221A606368002B50D0FFF7EFFB05468A
:10120800964B1B6813F4003F14D1FFF7E7FB401B14
:101218006428F5D903208AE1904B5B6813F4800FAA
:10122800D8D08E4B1B6813F4003F03D06368002BA3
:1012380000F07A81236813F0020F55D0874B9B6822
:1012480013F00C0F3ED0854B9B6803F00C03082B62
:1012580033D0E368002B68D0814B01221A60FFF776
:10126800BDFB05467D4B1B6813F0020F54D1FFF7F9
:10127800B5FB401B0228F5D9032058E1774A1368CB
:1012880043F480331360B5E7744B1A6842F4802244
:101298001A601A6842F480321A60ABE7FFF79EFBC7
:1012A80005466E4B1B6813F4003FC3D0FFF796FB4F
:1012B800401B6428F5D9032039E1684B5B6813F4B7
:1012C800800FC6D1654B1B6813F0020F04D0E3688A
:1012D800012B01D001202AE1604A136823F0F803AA
:1012E800216943EAC1031360236813F0080F40D053
:1012F800636963B35B4B01221A60FFF76FFB054616
:10130800564B5B6F13F0020F33D1FFF767FB401B9F
:101318000228F5D903200AE1504A136823F0F8039C
:10132800216943EAC1031360DEE74D4B00221A60CE
:10133800FFF754FB0546494B1B6813F0020FD3D047
:10134800FFF74CFB401B0228F5D90320EFE0454B83
:1013580000221A60FFF742FB0546404B5B6F13F013
:10136800020F06D0FFF73AFB401B0228F5D90320ED
:10137800DDE0236813F0040F79D0384B1B6C13F0B1
:10138800805F33D100230193344B1A6C42F08052B2
:101398001A641B6C03F080530193019B0125324BA7
:1013A8001B6813F4807F23D0A368012B34D0052B4E
:1013B80038D02A4B1A6F22F001021A671A6F22F0EE
:1013C80004021A67A368002B36D0FFF707FB06460E
:1013D800224B1B6F13F0020F48D1FFF7FFFA801B57
:1013E80041F288339842F3D90320A0E00025D6E7DC
:1013F8001D4A136843F480731360FFF7EFFA06463B
:10140800194B1B6813F4807FCED1FFF7E7FA801BD6
:101418000228F5D903208AE0104A136F43F001032C
:101428001367CFE70D4B1A6F42F004021A671A6F61
:1014380042F001021A67C5E7FFF7D0FA0646074BE4
:101448001B6F13F0020F11D0FFF7C8FA801B41F28F
:1014580088339842F3D9032069E000BF003802407E
:1014680000004742800E474200700040E5B9A3697A
:10147800002B5BD0304A926802F00C02082A58D040
:10148800022B17D02D4B00221A60FFF7A7FA04464B
:10149800294B1B6813F0007F42D0FFF79FFA001B0F
:1014A8000228F5D9032042E0234A136C23F0805325
:1014B8001364DCE7214B00221A60FFF78FFA054618
:1014C8001D4B1B6813F0007F06D0FFF787FA401BFF
:1014D8000228F5D903202AE0E369226A1343626AE5
:1014E80043EA8213A26A5208013A43EA0243E26AD3
:1014F80043EA0263104A5360104B01221A60FFF757
:101508006DFA04460C4B1B6813F0007F06D1FFF7F9
:1015180065FA001B0228F5D9032008E0002006E040
:10152800002004E001207047012000E0002002B004
:1015380070BD0120FBE700BF003802406000474251
:10154800324B9B6803F00C03042B5CD0082B01D0B2
:101558002F4870472DE9F04B2C4B5A6802F03F0298
:101568005B6813F4800F2BD0284B5B68C3F3881398
:101578001E4600275C010025E41A65EB0705A90152
:1015880041EA9461A001001B61EB0501CB0043EA2D
:101598005073C400A01943EB07014B0243EAD05330
:1015A8004402204619460023FFF74EF8174B5B68A4
:1015B800C3F3014301335B00B0FBF3F0BDE8F08BEC
:1015C800124B5B68C3F388131E4600275C01002595
:1015D800E41A65EB0705A90141EA9461A001001B23
:1015E80061EB0501CB0043EA5073C400A01943EB3B
:1015F80007018B0243EA90538402204619460023D0
:10160800FFF722F8D2E70348704700BF00380240CE
:101618000024F40000127A00002800F09D8070B5C4
:1016280004464F4B1B6803F00F038B4209D2CBB221
:101638004B4A1370136803F00F038B4201D001204B
:1016480070BD236813F0020F17D013F0040F04D0F5
:10165800444A936843F4E0539360236813F0080FF7
:1016680004D0404A936843F4604393603D4A9368CA
:1016780023F0F003A068034393600D46236813F03A
:10168800010F32D06368012B21D09A1E012A25D977
:10169800344A126812F0020F60D032498A6822F088
:1016A800030213438B60FFF799F906462D4B9B689D
:1016B80003F00C036268B3EB820F16D0FFF78EF9C4
:1016C800801B41F288339842F0D90320B8E7254AB5
:1016D800126812F4003FE0D10120B1E7214A1268F4
:1016E80012F0007FD9D10120AAE71D4B1B6803F037
:1016F8000F03AB4209D9EAB2194B1A701B6803F001
:101708000F03AB4201D001209AE7236813F0040FBE
:1017180006D0144A936823F4E053E1680B439360BE
:10172800236813F0080F07D00E4A936823F4604328
:10173800216943EAC1039360FFF702FF094B9B68E5
:10174800C3F30313084AD35CD840084B1860002041
:10175800FFF7FAF8002073E70120704701206FE7D0
:10176800003C0240003802406432000808000020B3
:10177800014B1868704700BF0800002008B5FFF744
:10178800F7FF044B9B68C3F38223034AD35CD8401A
:1017980008BD00BF003802407432000808B5FFF7E2
:1017A800E7FF044B9B68C3F34233034AD35CD8403A
:1017B80008BD00BF003802407432000810B4036A44
:1017C800046A24F001040462846924F0F00444EA01
:1017D800021223F00A030B43826103625DF8044B93
:1017E800704710B4036A23F0100303628469036A24
:1017F80024F4704444EA023223F0A00343EA0113BC
:10180800826103625DF8044B7047836823F07003BC
:1018180041F0070119438160704710B4846824F4CB
:101828007F4442EA03230B43234383605DF8044B60
:1018380070470268D36843F00103D36002681368F5
:1018480043F0010313600020704790F83830012BF3
:101858007DD010B50446012380F83830022380F883
:1018680039300268936823F47F4323F07703936049
:101878000B68402B57D010D9702B3ED01FD8502B57
:1018880047D0602B32D1CA6849680068FFF7A9FFC2
:1018980060212068FFF7B9FF28E0102B4DD008D948
:1018A800202B4FD0302B21D130210068FFF7ADFF1E
:1018B8001CE0DBB900210068FFF7A7FF16E0B3F5CD
:1018C800805F0ED0B3F5005F10D1CB684A68896895
:1018D8000068FFF7A2FF2268936843F4804393608F
:1018E80004E00268936823F007039360012384F8F7
:1018F8003930002084F8380010BDCB684A68896800
:101908000068FFF78AFF2268936843F077039360C3
:10191800ECE7CA6849680068FFF750FF5021206863
:10192800FFF773FFE2E7CA6849680068FFF746FFF8
:1019380040212068FFF769FFD8E710210068FFF70A
:1019480064FFD3E720210068FFF75FFFCEE702209E
:101958007047704770477047704710B50446036872
:101968001A6912F0020F11D0DA6812F0020F0DD0C6
:101978006FF002021A610123037603689B6913F072
:10198800030F70D0FFF7E6FF0023237623681A6958
:1019980012F0040F12D0DA6812F0040F0ED06FF0B4
:1019A80004021A610223237623689B6913F4407F9B
:1019B8005FD02046FFF7CEFF0023237623681A69FD
:1019C80012F0080F12D0DA6812F0080F0ED06FF07C
:1019D80008021A61042323762368DB6913F0030FD6
:1019E8004ED02046FFF7B6FF0023237623681A69F6
:1019F80012F0100F12D0DA6812F0100F0ED06FF03C
:101A080010021A61082323762368DB6913F4407FE8
:101A18003DD02046FFF79EFF0023237623681A69EE
:101A280012F0010F03D0DA6812F0010F36D12368E3
:101A38001A6912F0800F03D0DA6812F0800F34D1DF
:101A480023681A6912F0400F03D0DA6812F0400FC9
:101A580032D123681A6912F0200F03D0DA6812F025
:101A6800200F30D110BDFFF774FF2046FFF773FF3A
:101A78008AE72046FFF76DFF2046FFF76CFF9BE7DC
:101A88002046FFF766FF2046FFF765FFACE72046D4
:101A9800FFF75FFF2046FFF75EFFBDE76FF001022B
:101AA8001A61204600F042FDC1E76FF080021A611A
:101AB800204600F0B2F8C3E76FF040021A612046F2
:101AC800FFF74AFFC5E76FF020021A61204600F0D1
:101AD800A3F8C7E703682E4A904212D0B0F1804FAE
:101AE8000FD0A2F57C4290420BD002F58062904262
:101AF80007D002F58062904203D002F57842904206
:101B080003D123F070034A681343214A90422AD034
:101B1800B0F1804F27D0A2F57C42904223D002F545
:101B2800806290421FD002F5806290421BD002F57D
:101B38007842904217D002F57052904213D002F5C5
:101B4800806290420FD002F5806290420BD0A2F5DD
:101B58009832904207D002F58062904203D002F595
:101B68008062904203D123F44073CA681343036030
:101B78008B68C3620B688362054B984203D003F5F8
:101B88008063984201D10B69036301234361704765
:101B980000000140A8B110B5044690F839305BB197
:101BA800022384F83930211D2068FFF793FF0123B1
:101BB80084F83930002010BD80F8383001F014FA6C
:101BC800EEE70120704790F83830012B22D030B46E
:101BD800012280F83820022380F8393004686368CD
:101BE80023F070036360046863680D682B436360C7
:101BF8000468A36823F08003A3600468A3684968A5
:101C08000B43A36080F83920002380F83830184649
:101C180030BC704702207047704770470268D3682D
:101C280023F49073D3600268536923F0010353616E
:101C3800202380F83A30704790F83930DBB2212BF6
:101C48002AD18368B3F5805F16D0036A5A1C0262F2
:101C58001A7803685A60C38C013B9BB2C384EBB902
:101C68000268D36823F08003D3600268D36843F026
:101C78004003D36000207047036A1B880268C3F3DF
:101C88000803536003691BB9036A02330362E2E77E
:101C9800036A01330362DEE70220704700207047C1
:101CA8002DE9F843044601680A6922F44052C368E2
:101CB80013430B610168CA6822F4164222F00C0231
:101CC80083680069034360690343E069034313437E
:101CD800CB6021684A6922F44072A36913434B61BF
:101CE800E369B3F5004F60D02368B84A934200F027
:101CF800148102F58062934200F00F81FFF73EFDE8
:101D080000EB800000EB80006568AD00B0FBF5F5E6
:101D1800AF4FA7FB05356D092E01FFF72FFD00EB2F
:101D2800800000EB80006568AD00B0FBF5F9FFF7B7
:101D380025FD00EB800000EB80006568AD00B0FB7E
:101D4800F5F5A7FB05356D094FF0640808FB1595F7
:101D58002D013235A7FB05356D0905F0F005354431
:101D6800FFF70CFD00EB800000EB80006668B60012
:101D7800B0FBF6F6FFF702FD00EB800000EB8000F9
:101D880063689B00B0FBF3F0A7FB0030400908FB39
:101D980010684FEA081808F13208A7FB0837C7F39C
:101DA800431723682F449F600DE12368874A9342B5
:101DB8005BD002F58062934257D0FFF7DFFC00EB5F
:101DC800800000EB800065686D00B0FBF5F5804F82
:101DD800A7FB05356D092E01FFF7D0FC00EB80004D
:101DE80000EB800065686D00B0FBF5F9FFF7C6FCF5
:101DF80000EB800000EB800065686D00B0FBF5F536
:101E0800A7FB05356D094FF0640808FB1595ED0033
:101E18003235A7FB05356D096D0005F4F8753544B5
:101E2800FFF7ACFC00EB800000EB800066687600F2
:101E3800B0FBF6F6FFF7A2FC00EB800000EB800099
:101E480063685B00B0FBF3F3A7FB03235B0908FBA4
:101E580013684FEAC80808F13208A7FB0837C7F328
:101E6800421723682F449F60ADE0FFF797FC00EB13
:101E7800800000EB800065686D00B0FBF5F5544FFD
:101E8800A7FB05356D092E01FFF788FC00EB8000E4
:101E980000EB800065686D00B0FBF5F9FFF77EFC8C
:101EA80000EB800000EB800065686D00B0FBF5F585
:101EB800A7FB05356D094FF0640808FB1595ED0083
:101EC8003235A7FB05356D096D0005F4F875354405
:101ED800FFF764FC00EB800000EB8000666876008A
:101EE800B0FBF6F6FFF75AFC00EB800000EB800031
:101EF80063685B00B0FBF3F3A7FB03235B0908FBF4
:101F080013684FEAC80808F13208A7FB0837C7F377
:101F1800421723682F449F6055E0FFF73FFC00EB12
:101F2800800000EB80006568AD00B0FBF5F5284F38
:101F3800A7FB05356D092E01FFF730FC00EB80008B
:101F480000EB80006568AD00B0FBF5F9FFF726FCF3
:101F580000EB800000EB80006568AD00B0FBF5F594
:101F6800A7FB05356D094FF0640808FB15952D0191
:101F78003235A7FB05356D0905F0F0053544FFF747
:101F88000DFC00EB800000EB80006668B600B0FB3B
:101F9800F6F6FFF703FC00EB800000EB80006368B7
:101FA8009B00B0FBF3F0A7FB0030400908FB10686A
:101FB8004FEA081808F13208A7FB0837C7F3431798
:101FC80023682F449F60BDE8F88300BF00100140DC
:101FD8001F85EB5158B310B5044690F839300BB350
:101FE800242384F839302268D36823F40053D3605B
:101FF8002046FFF755FE2268136923F490431361C6
:102008002268536923F02A0353612268D36843F492
:102018000053D3600020E063202384F8393084F82B
:102028003A3010BD80F8383000F0FEFFD8E70120C4
:10203800704790F83930DBB2202B16D1B9B1C2B154
:1020480090F83830012B16D001628284C2840023B4
:10205800C363212280F8392080F838300168CA68C3
:1020680042F08002CA60184670470220704701207B
:1020780070470120704702207047704708B5016813
:10208800CB6823F04003CB60202380F83930FFF77A
:10209800F4FF002008BD704708B590F83A30DBB26D
:1020A800222B40D18368B3F5805F0ED0036903BB50
:1020B80003685A68836A591C81621A70C38D013B90
:1020C8009BB2C385F3B100202EE0826A036943B94D
:1020D80003685B68C3F308031380836A023383626F
:1020E800ECE703685B68DBB21380836A01338362C1
:1020F800E4E703685B68826A511C816203F07F032E
:102108001370DBE70268D36823F49073D360026826
:10211800536923F001035361202380F83A30FFF715
:10212800BAFF002000E0022008BD704710B5044641
:1021380002681368D168526913F00F0005D113F0D3
:10214800200F02D011F0200F53D1002867D012F0D1
:10215800010202D111F4907F61D013F0010F06D073
:1021680011F4807F03D0E06B40F00100E06313F0CE
:10217800040F04D01AB1E06B40F00200E06313F0E2
:10218800020F04D01AB1E06B40F00400E06313F0D2
:10219800080F04D01AB1E26B42F00802E263E26B66
:1021A800002A48D013F0200F02D011F0200F24D1BC
:1021B80023685B6903F04003E26B12F0080F00D15B
:1021C8003BB32046FFF72AFD23685A6912F0400FF7
:1021D8001BD05A6922F040025A61636B8BB11A4ACC
:1021E8001A65606BFEF7CCFE28B3606B036D9847E9
:1021F80021E02046FFF750FF1DE02046FFF74CFF87
:10220800D6E72046FFF791FF15E02046FFF78DFF40
:1022180011E02046FFF789FF0023E3630BE013F08A
:10222800800F02D011F0800F06D113F0400F02D0BA
:1022380011F0400F04D110BD2046FFF7FDFCFAE76E
:102248002046FFF71BFFF6E75522000808B5806B0C
:102258000023C385C384FFF768FF08BDF0B58DB0C0
:1022680000240794089409940A940B940194484B09
:102278001A6B42F010021A631A6B02F010020192F4
:10228800019A02941A6B42F080021A631A6B02F0E8
:1022980080020292029A03941A6B42F001021A63B6
:1022A8001A6B02F001020392039A04941A6B42F02B
:1022B80002021A631A6B02F002020492049A05944D
:1022C8001A6B42F008021A631A6B02F008020592B0
:1022D800059A06941A6B42F004021A631B6B03F00A
:1022E80004030693069B2B4F2246FF213846FEF730
:1022F80046FF294D22464FF440412846FEF73FFF4E
:10230800FF2307930126089609940A9407A93846DB
:10231800FEF74AFE4FF440430793089609940A943F
:1023280007A92846FEF740FE43F6FC7307931B4BAC
:102338000893099407A91A48FEF736FE2246214653
:102348000820FEF7C7FD0820FEF7F8FD22462146C3
:102358000920FEF7BFFD0920FEF7F0FD22462146C1
:102368000A20FEF7B7FD0A20FEF7E8FD22462146BF
:102378001720FEF7AFFD1720FEF7E0FD22462146A5
:102388002820FEF7A7FD2820FEF7D8FD0DB0F0BDE8
:1023980000380240001002400004024000003110E2
:1023A800000C024008B50848084B03604FF4165368
:1023B800436000238360C36003610C224261836130
:1023C800C361FFF707FE08BD6C000020004800400D
:1023D80070B584B0002500950195029503950F4CC2
:1023E8000F4B23604FF480336360A5602561A561BE
:1023F8002562E5620B4BA362E5600126E661256371
:1024080066612046FEF788FB0095019602956946AD
:102418002046FEF785FC04B070BD00BFF400002024
:10242800002001400100000F70B584B00025009520
:102438000195029503950F4C0F4B23604FF48033A1
:102448006360A5602561A5612562E5620B4BA36207
:10245800E5600126E661256366612046FEF75CFBC0
:1024680000960196029569462046FEF759FC04B08D
:1024780070BD00BFAC000020002101400100000F2A
:1024880070B584B0002500950195029503950F4C11
:102498000F4B23604FF480336360A5602561A5610D
:1024A8002562E5620B4BA362E5600126E6612563C0
:1024B80066612046FEF730FB0223009301960295E1
:1024C80069462046FEF72CFC04B070BD4001002090
:1024D800002201400100000F30B587B000240294AB
:1024E800039404940594009401940E4D0E4B2B60B4
:1024F80042F20F736B60AC6040F24733EB602C61C3
:102508002846FFF747FB4FF48053029302A9284659
:10251800FFF79BF90094019469462846FFF753FB9F
:1025280007B030BD30000020000800400268AB4B07
:102538009A4200D0704730B583B0A94C00224FF4BE
:1025480080412046FEF71BFE0122FF21A548FEF729
:1025580016FE01224FF400412046FEF710FEA24B62
:102568001B680A2B0CD8DFE803F0062B31373D43F4
:10257800494F555B610000223F219A48FEF7FFFD55
:102588009A4C2046FEF7F2FA9948FEF7EFFA994876
:10259800FEF7ECFA0A212046FEF764FB002863D018
:1025A8000A219348FEF75EFB002800F0C2800A214A
:1025B8009048FEF757FB002800F0E58003B030BDD7
:1025C800002206218748FEF7DAFDD9E700225B21C1
:1025D8008448FEF7D4FDD3E700224F218148FEF757
:1025E800CEFDCDE7002266217E48FEF7C8FDC7E78D
:1025F80000226D217B48FEF7C2FDC1E700227D2144
:102608007848FEF7BCFDBBE7002207217548FEF7B6
:10261800B6FDB5E700227F217248FEF7B0FDAFE7AF
:1026280000226F216F48FEF7AAFDA9E76D4C002232
:102638003F212046FEF7A3FD694D00224FF40041DB
:102648002846FEF79CFD0122FF212046FEF797FD54
:1026580001224FF480412846FEF791FD0022062111
:102668002046FEF78CFD8BE72046FEF756FBC0F3AD
:102678004710614B18700B2803D85B4B00221A6077
:102688008EE7A0F10C03DBB20B2B03D8564B0122CB
:102698001A6085E7A0F11803DBB20B2B03D8524B65
:1026A80002221A607CE7A0F12403DBB20B2B03D8CB
:1026B8004D4B03221A6073E7A0F13003DBB20B2BFA
:1026C80003D8494B04221A606AE7A0F13C03DBB245
:1026D8000B2B03D8444B05221A6061E7A0F148038D
:1026E800DBB20B2B03D8404B06221A6058E7A0F147
:1026F8005403DBB20B2B03D83B4B07221A604FE77E
:10270800A0F16003DBB20B2B03D8374B08221A6009
:1027180046E7A0F16C03DBB20B2B03D8324B09223E
:102728001A603DE777287FF63BAF2F4B0A221A60E5
:1027380036E72F48FEF7F1FAC0F347142F4B1C7009
:102748002F4B1878201AFDF78DFE02460B461046CF
:1027580023F0004100222B4BFDF76CFF00283FF4CB
:1027680026AFB1238DF8043001238DF805308DF89C
:102778000640032201A92448FFF75BFC1F4B1A7887
:102788001F4B1A7013E71B48FEF7C7FAC0F347142C
:102798001E4B1C701A4B5878201AFDF763FE024630
:1027A8000B46104623F000410022164BFDF742FF6E
:1027B80000283FF403AFB2238DF8043001238DF8CD
:1027C80005308DF80640032201A90F48FFF731FCB8
:1027D8000E4B1A780A4B5A70F0E600BF000800400A
:1027E800000402400010024088010020F40000208C
:1027F800AC000020400100208D0100208C01002049
:10280800280000200000F03F6C0000203C01002060
:1028180010B582B00446042850D0042C67D0082C88
:102828007ED0082C00F09780102C00F0AF80102C80
:1028380000F0C780202C00F0DF80202C00F0F7800B
:10284800402C00F00F81402C00F02781802C00F0F4
:102858003F81802C00F05781B4F5807F00F06E81B5
:10286800B4F5807F00F08681B4F5007F00F09E818A
:10287800B4F5007F00F0BC81B4F5806F00F0D4811E
:10288800B4F5806F00F0EC81B4F5006F00F00482BD
:10289800B4F5006F00F01C82B4F5805F00F034825C
:1028A800B4F5805F00F04C82B4F5005F00F06482FC
:1028B800B4F5005F00F07C8202B010BD0421C94865
:1028C800FEF756FC0028A8D190238DF80430C64B9B
:1028D8001B6803EB43039A008DF8052040238DF80D
:1028E8000630032201A9C148FFF7A3FBE4E704214E
:1028F800BC48FEF73DFC012891D181238DF80430B6
:10290800B94B1B6803EB43039A008DF8052000239D
:102918008DF80630032201A9B448FFF78AFBCBE7FC
:102928000821B048FEF724FC00287FF47AAF9023F2
:102938008DF80430AC4B1B6803EB43039A0001325B
:102948008DF8052040238DF80630032201A9A748F9
:10295800FFF76FFBB0E70821A248FEF709FC012842
:102968007FF462AF81238DF804309F4B1B6803EB23
:1029780043039A0001328DF8052000238DF80630B4
:10298800032201A99948FFF754FB95E710219548C0
:10299800FEF7EEFB00287FF44AAF90238DF8043051
:1029A800914B1B6803EB43039A0002328DF8052014
:1029B80040238DF80630032201A98C48FFF739FB24
:1029C8007AE710218748FEF7D3FB01287FF432AF5E
:1029D80081238DF80430844B1B6803EB43039A0072
:1029E80002328DF8052000238DF80630032201A954
:1029F8007E48FFF71EFB5FE720217A48FEF7B8FB09
:102A080000287FF41AAF90238DF80430764B1B68AA
:102A180003EB43039A0003328DF8052040238DF819
:102A28000630032201A97148FFF703FB44E7202180
:102A38006C48FEF79DFB01287FF402AF81238DF8D7
:102A48000430694B1B6803EB43039A0003328DF88B
:102A5800052000238DF80630032201A96348FFF7FB
:102A6800E8FA29E740215F48FEF782FB00287FF457
:102A7800EAAE90238DF804305B4B1B6803EB4303ED
:102A88009A0004328DF8052040238DF80630032281
:102A980001A95648FFF7CDFA0EE740215148FEF745
:102AA80067FB01287FF4D2AE81238DF804304E4BAA
:102AB8001B6803EB43039A0004328DF805200023BA
:102AC8008DF80630032201A94848FFF7B2FAF3E669
:102AD80080214448FEF74CFB00287FF4BAAE9023CF
:102AE8008DF80430404B1B6803EB43039A00053212
:102AF8008DF8052040238DF80630032201A93B48B4
:102B0800FFF797FAD8E680213648FEF731FB01280F
:102B18007FF4A2AE81238DF80430334B1B6803EB9E
:102B280043039A0005328DF8052000238DF80630FE
:102B3800032201A92D48FFF77CFABDE64FF4807106
:102B48002848FEF715FB00287FF48AAE90238DF8FD
:102B58000430254B1B6803EB43039A0006328DF8BB
:102B6800052040238DF80630032201A91F48FFF7EE
:102B780060FAA1E64FF480711A48FEF7F9FA0128C5
:102B88007FF472AE81238DF80430174B1B6803EB7A
:102B980043039A0006328DF8052000238DF806308D
:102BA800032201A91148FFF744FA85E64FF40071A2
:102BB8000C48FEF7DDFA00287FF45AAE90238DF812
:102BC8000430094B1B6803EB43039A0007328DF866
:102BD800052040238DF80630032201A90348FFF79A
:102BE80028FA69E6000C0240880100206C000020E9
:102BF8004FF400717C48FEF7BBFA01287FF43CAE25
:102C080081238DF80430794B1B6803EB43039A004A
:102C180007328DF8052000238DF80630032201A91C
:102C28007348FFF706FA47E64FF480616E48FEF7EF
:102C38009FFA00287FF424AE90238DF804306B4B64
:102C48001B6803EB43039A0008328DF805204023E4
:102C58008DF80630032201A96548FFF7EAF92BE64B
:102C68004FF480616048FEF783FA01287FF40CAEC8
:102C780081238DF804305D4B1B6803EB43039A00F6
:102C880008328DF8052000238DF80630032201A9AB
:102C98005748FFF7CEF90FE64FF400615248FEF7A8
:102CA80067FA00287FF4F4AD90238DF804304F4B79
:102CB8001B6803EB43039A0009328DF80520402373
:102CC8008DF80630032201A94948FFF7B2F9F3E568
:102CD8004FF400614448FEF74BFA01287FF4DCAD5D
:102CE80081238DF80430414B1B6803EB43039A00A2
:102CF80009328DF8052000238DF80630032201A93A
:102D08003B48FFF796F9D7E54FF480513648FEF770
:102D18002FFA00287FF4C4AD90238DF80430334B8C
:102D28001B6803EB43039A000A328DF80520402301
:102D38008DF80630032201A92D48FFF77AF9BBE583
:102D48004FF480512848FEF713FA01287FF4ACAD00
:102D580081238DF80430254B1B6803EB43039A004D
:102D68000A328DF8052000238DF80630032201A9C8
:102D78001F48FFF75EF99FE54FF400511A48FEF728
:102D8800F7F900287FF494AD90238DF80430174BA1
:102D98001B6803EB43039A000B328DF80520402390
:102DA8008DF80630032201A91148FFF742F983E59F
:102DB8004FF400510C48FEF7DBF901287FF47CAD95
:102DC80081238DF80430094B1B6803EB43039A00F9
:102DD8000B328DF8052000238DF80630032201A957
:102DE8000348FFF726F967E5000C02408801002038
:102DF8006C00002030B595B03022002108A800F002
:102E080019FA0024039404940594069407940194F1
:102E18001B4B1A6C42F080521A641B6C03F08053EF
:102E28000193019B0294174B1A6842F480421A607E
:102E38001B6803F480430293029B012308934FF419
:102E48008033099302250E954FF480030F930423D2
:102E58001093A82211921295139308A8FEF7A4F9CB
:102E68000F230393049505944FF4A05306934FF44E
:102E780080530793052103A8FEF7CEFB15B030BD9C
:102E8800003802400070004008B5FDF781FDFFF7EB
:102E9800B1FFFFF7E3F9FFF785FAFFF799FAFFF7B4
:102EA800C3FAFFF7EDFAFFF717FB0248FEF7C1FC7C
:102EB800FEE700BF3000002082B0002100910B4BDC
:102EC8005A6C42F480425A645A6C02F4804200926E
:102ED800009A01911A6C42F080521A641B6C03F03C
:102EE80080530193019B02B0704700BF0038024035
:102EF80000B58DB000230793089309930A930B93A9
:102F08000368344A934208D0334A934224D0334A60
:102F1800934240D00DB05DF804FB00210191304B85
:102F28005A6C42F480725A645A6C02F480720192AC
:102F3800019A02911A6B42F001021A631B6B03F0AB
:102F480001030293029B012307930323089307A914
:102F58002448FEF729F8DDE700210391204B5A6C3D
:102F680042F400725A645A6C02F400720392039A93
:102F780004911A6B42F001021A631B6B03F0010300
:102F88000493049B022307930323089307A9154876
:102F9800FEF70AF8BEE700210591114B5A6C42F47E
:102FA80080625A645A6C02F480620592059A06910E
:102FB8001A6B42F001021A631B6B03F001030693BC
:102FC800069B042307930323089307A90548FDF7E5
:102FD800EBFF9FE700200140002101400022014053
:102FE800003802400000024002680E4B9A4200D0AE
:102FF800704700B583B00021019103F50C331A6CBA
:1030080042F004021A641B6C03F004030193019B51
:103018000A461E20FDF75EFF1E20FDF78FFF03B056
:103028005DF804FB0008004010B588B00023039346
:10303800049305930693079302681A4B9A4201D0AA
:1030480008B010BD0024019403F5F8331A6C42F45B
:1030580080221A641A6C02F480220192019A029466
:103068001A6B42F004021A631B6B03F00403029309
:10307800029B4FF4406303930223049301230593B7
:10308800032306930723079303A90748FDF78CFF3B
:10309800224621462720FDF71DFF2720FDF74EFF7A
:1030A800CEE700BF00480040000802407047FEE736
:1030B800FEE7FEE7FEE770477047704708B5FDF783
:1030C80081FC08BD08B50420FEF760F808BD08B506
:1030D8000820FEF75BF808BD08B51020FEF756F883
:1030E80008BD08B52020FEF751F84020FEF74EF83D
:1030F8008020FEF74BF84FF48070FEF747F84FF446
:103108000070FEF743F808BD08B50248FEF725FC35
:1031180008BD00BF3000002008B50248FFF706F8D8
:1031280008BD00BF6C00002008B54FF48060FEF7B2
:103138002DF84FF40060FEF729F84FF48050FEF7A1
:1031480025F84FF40050FEF721F808BD0F49D1F8D3
:10315800883043F47003C1F888300D4B1A6842F088
:1031680001021A60002098601A6822F0847222F422
:1031780080321A60074A5A601A6822F480221A605C
:10318800D8604FF000638B60704700BF00ED00E02F
:103198000038024010300024DFF834D0002103E06A
:1031A8000C4B5B58435004310B480C4B42189A4265
:1031B800F6D30B4A02E0002342F8043B094B9A423B
:1031C800F9D3FFF7C3FF00F011F8FFF75DFE704772
:1031D800000002208C320008000000200C000020B3
:1031E8000C00002090010020FEE7000070B50D4E95
:1031F8000D4CA41BA4100025A54209D10B4E0C4C64
:1032080000F020F8A41BA4100025A54205D170BD2C
:1032180056F8253098470135EEE756F82530984797
:103228000135F2E78432000884320008843200084D
:103238008832000802440346934200D1704703F8DD
:10324800011BF9E7F8B500BFF8BC08BC9E467047FB
:0C325800F8B500BFF8BC08BC9E467047EB
:103264000000000000000000010203040607080932
:08327400000000000102030448
:08327C0004D4FF7F01000000F3
:04328400AD01000890
:0432880089010008B0
:0C328C0001000000100000000024F4000D
:04000005080031A11D
:00000001FF
